:060000000C942A000C9490
:1000060000000C9400000C9400000C9400000C946A
:1000160000000C9400000C9400000C9400000C945A
:1000260000000C9400000C9400000C9400000C944A
:1000360000000C9400000C9400000C9400000C943A
:1000460000000C9400000C9400000C940000F8943E
:10005600EE27ECBBF1E0FBBFEBBFE5BFF8E1F1BD7E
:10006600E1BD8DE0A2E0BB27ED938A95E9F780E03C
:1000760098E0A0E6ED930197E9F7EFE5EDBFE8E03C
:10008600EEBFC0E6D2E00C94EA00E0E0EBBBEFEF97
:10009600EABBE0E0E8BBE7BBE5BBE4BBE2BBE1BB38
:1000A600E3BFE2BFECBFEFBDEEBDEDBDECBDE7BD0E
:1000B600E6BDEBBDEABDE9BDE8BDE2BDE5BDE4BD1B
:1000C600E3BDE5BFE4BFE9BFEAB9E0E8E8B9E0E0CF
:1000D600E0BFE6B9EDB90FC0E2E0E0B9E2B9E4E4A9
:1000E600E6BFE0E0E1B90895E4EAE6BFE6B7E07806
:1000F600E9F30895E4E9E6BF0895E881E3B9E4E8A1
:10010600E6BFE6B7E078E9F321960895E4E8E6BFAE
:10011600E6B7E078E9F3E3B108951A93E1B1E87F31
:100126001E2FE12F1991089570D011F0E0E012C052
:10013600EB81FC8173D011F0E0E00CC0EB817DD047
:1001460011F0E0E007C0EA8178D011F0E0E002C0EB
:10015600D1DFE1E0198108812596089556D011F086
:10016600E0E031C0EC81FD8159D011F0E0E02BC018
:10017600EC8163D011F0E0E026C0B6DFCEDF1E2FA3
:10018600103111F0E0E01FC0EC81FD81E070F770E6
:100196000E9434010E9432010E2FE02FE16AEA9399
:1001A600ACDFBBDF1E2F103411F0E0E00CC0AEDF79
:1001B600AA81BB81EC93B1DF1E2F183511F0E0E068
:1001C60002C098DFE1E0198108812696089510E0C3
:1001D6005CDF82DFE2E0F0E0FA93EA93E8E5EA9397
:1001E600A3DFE8EEF3E0FA93EA930E942601E2E049
:1001F600F0E0FA93EA93EDB7FEB7FA93EA931F930A
:10020600ADDF1F911BBBFFCFFFCF1A930A9310E000
:1002160000E06ADF82DF1E2F18300895E070F77065
:100226000E9434010E9432010E2FE02FE06AEA9309
:1002360064DF73DF1E2F18310895EA935EDF6DDFEA
:100246001E2F18320895E991F991309639F080ED14
:1002560097E00197F1F7A8953197C9F70895F695B4
:10026600E795F695E795F695E795F695E79508955A
:00000001FF
