:100000000C942A000C9447000C9447000C94470071
:100010000C9447000C9447000C9447000C94470044
:100020000C9447000C9447000C9447000C94470034
:100030000C9447000C9447000C9447000C94470024
:100040000C9447000C9447000C9447000C94470014
:100050000C94470011241FBECFE5D4E0DEBFCDBF16
:1000600010E0A0E6B0E0E4EDF1E002C005900D92F2
:10007000A03AB107D9F710E0A0EAB0E001C01D92A4
:10008000A03AB107E1F70E9449000C94E8000C94F3
:100090000000CF92DF92EF92FF921F93DF93CF93F6
:1000A000CDB7DEB7C054D0400FB6F894DEBF0FBE58
:1000B000CDBFFE01319680E4DF011D928A95E9F7FC
:1000C000A0E6B0E08BE00D9001928150E1F7FE01D7
:1000D0003C9685E0DF011D928A95E9F7DE01519695
:1000E000E0E7F0E08EE001900D928150E1F718A278
:1000F0001F8EDE019196E0E8F0E08BE001900D921A
:100100008150E1F7FE01BC9685E0DF011D928A95E2
:10011000E9F7DE01D196E0E9F0E085E001900D928B
:100120008150E1F7FE01F6968BE0DF011D928A9582
:10013000E9F70E94C30080E29EE428EC30E0F90178
:100140003197F1F70197D9F710E06E010894C11CBF
:10015000D11C38ECE32EF12C812F90E024E0880FA5
:10016000991F2A95E1F78C0D9D1D0E94D30080E513
:1001700093ECF7013197F1F70197D9F71F5F14302E
:1001800058F310E0E9CF83E389B910BC86E880BD5D
:1001900088E18AB908955D9BFECF8CB908955F9B75
:1001A000FECF8CB10895FC0104C05D9BFECF8CB9DD
:1001B000319680818823C9F70895FC015F9BFECFAB
:1001C0008CB18083833211F03196F8CF108208957C
:0401D000F894FFCFD1
:1001D4004631382047726F7570230000000000001C
:1001E400456D6265646465642046616223000000B5
:1001F40055415254205465737423000000000000DC
:10020400456E6423000000000000000000000000B0
:00000001FF
