:060000000C942A000C9490
:1000060000000C9400000C9400000C9400000C946A
:1000160000000C9400000C9400000C9400000C945A
:1000260000000C9400000C9400000C9400000C944A
:1000360000000C9400000C9400000C9400000C943A
:1000460000000C9400000C9400000C940000F8943E
:10005600EE27ECBBF1E0FBBFEBBFE5BFF8E1F1BD7E
:10006600E1BD8DE0A2E0BB27ED938A95E9F780E03C
:1000760098E0A0E6ED930197E9F7EFE5EDBFE8E03C
:10008600EEBFC0E6D2E00C948F00BE9AE0E4EDB974
:100096000895779BFECFEFB108951A9310E010E014
:1000A600E9811E1770F4E12FAA81BB81F0E0EA0F07
:1000B600FB1FFF93EF93EDDFAF91BF91EC931F5FB3
:1000C600EFCF188124960895E0E0EBBBEFEFEABB93
:1000D600E0E0E8BBE7BBE5BBE4BBE2BBE1BBE3BFFB
:1000E600E2BFECBFEFBDEEBDEDBDECBDE7BDE6BDCD
:1000F600EBBDEABDE9BDE8BDE2BDE5BDE4BDE3BDDE
:10010600E5BFE4BFE9BFEAB9E0E8E8B9E0E0E0BF8F
:10011600E6B9EDB9E6BF08952597E0E0E883E983FF
:10012600EA83EB83EC8310E000E0CEDFAEDFB1DFE5
:100136001E2F1BBBFE01FA93EA93E5E0EA93ADDFBF
:1001460000E0053078F4E02FF0E0DE01AE0FBF1FCF
:10015600EC91EBBBE8EBFBE0FA93EA930E94B70065
:100166000F5FEFCFFFCFFFCFE991F991309639F0CE
:1001760080ED97E00197F1F7A8953197C9F70895B3
:00000001FF
