:0C0000000C942F000C9400000C940000E5
:10000C000C9400000C9400000C9400000C94000064
:10001C000C9400000C9400000C945F000C940000F5
:10002C000C9400000C9400000C9400000C94000044
:10003C000C9400000C9400000C9400000C94000034
:10004C000C9400000C94000000000200040054000A
:10005C000000F894EE27ECBBF1E0FBBFEBBFE5BF73
:10006C00F8E1F1BDE1BD8DE0A2E0BB27ED938A95EF
:10007C00E9F780E094E0A0E6ED930197E9F7E6E577
:10008C00F0E085919591009761F0A591B59105905F
:10009C001590BF01F00105900D920197E1F7FB015E
:1000AC00F0CFEFE5EDBFE4E0EEBFC0E6D1E00C949D
:1000BC00A400EA93FA93EFB7EA93F20131962F0179
:1000CC00E4EFF1E0E415F50529F4E5B3E095E5BBC3
:1000DC0044245524E991EFBFF991E9911895E0E09A
:1000EC00EBBBEABBE8BBE7BBEFEFE5BBE4BBE0E097
:1000FC00E2BBE0E8E1BBE3E0E3BFE0E0E2BFECBF82
:10010C00EFBDEEBDEDBDECBDE7BDE6BDEBBDEABDA3
:10011C00E9BDE8BDE2BDE7E6E5BDE0E0E4BDE3BD79
:10012C00E5BFE4BFE1E0E9BFE0E0EAB9E0E8E8B947
:10013C00E0E0E0BFE6B9EDB9E6BF089500E010E0FD
:10014C00CEDF789400E010E00A3FE0E01E0720F4D8
:10015C0003BD0F5F1F4FF8CF0AEF10E0002400160D
:10016C00010620F403BD01501040F8CFEBCFFFCFB8
:00000001FF
