:100000000C942A000C9447000C9447000C94470071
:100010000C9447000C9447000C9447000C94470044
:100020000C9447000C9447000C9447000C94470034
:100030000C9447000C9447000C9447000C94470024
:100040000C9447000C9447000C9447000C94470014
:100050000C94470011241FBECFE5D8E0DEBFCDBF12
:1000600010E0A0E6B0E0ECEBF0E002C005900D92ED
:10007000A036B107D9F710E0A0E6B0E001C01D92AC
:10008000A036B107E1F70E9449000C945C000C9483
:10009000000088E087BB18BA8DE983BF80E88CBF79
:1000A00012BE19BE80E002C08CBF8F5F8F3FE1F7A8
:0C00B0008CBF8150E9F7FACFF894FFCF25
:00000001FF
