:100000000C942A000C9447000C9447000C94470071
:100010000C9447000C9447000C9447000C94470044
:100020000C9447000C9447000C9447000C94470034
:100030000C9447000C9447000C9447000C94470024
:100040000C9447000C9447000C9447000C94470014
:100050000C94470011241FBECFE5D4E0DEBFCDBF16
:1000600010E0A0E6B0E0E6E6F2E002C005900D92F6
:10007000A036B107D9F710E0A0E6B0E001C01D92AC
:10008000A036B107E1F70E9449000C9431010C94AD
:100090000000FF920F931F93DF93CF93CDB7DEB78E
:1000A00060970FB6F894DEBF0FBECDBF8E010F5F15
:1000B0001F4F80E1F80111928A95E9F70E946F00C5
:1000C0000E940C01F02E012F8F2D902F0E942601EF
:1000D0000E94BA008F2D902F0E94F300F5CF8FEF72
:1000E00087BB18BA87E084BB91E095BBAA98A99812
:1000F00088E388BBA89840ED57E0FA013197F1F703
:10010000A89A20E137E2F9013197F1F7AA98A99866
:100110008CE088BBA898FA013197F1F7A89AF90109
:100120003197F1F7AA98A99898BBA898CA010197A6
:10013000F1F7A89AC9010197F1F70895AA9AA99829
:1001400088BBA89880ED97E00197F1F7A89A80E125
:1001500097E20197F1F70895AA98A99888BBA89803
:1001600080ED97E00197F1F7A89A80E197E2019777
:10017000F1F70895AA98A99881E088BBA89880ED26
:1001800097E00197F1F7A89A80E197E20197F1F7DC
:100190000895613011F4805807C0623011F4805422
:1001A00003C0633079F48C56AA98A99888BBA898A4
:1001B00080ED97E00197F1F7A89A80E197E2019727
:1001C000F1F70895643071F48C52AA98A99888BB0D
:1001D000A89880ED97E00197F1F7A89A80E197E25F
:1001E0000197F1F7089520E060ED77E040E157E2F4
:1001F0000CC02F5FAA9AA998E8BBA898FB01319779
:10020000F1F7A89AFA013197F1F7FC01E20FF11D1D
:10021000E081EE2371F7089583E389B910BC86E885
:1002200080BD88E18AB908955D9BFECF8CB90895A1
:100230005F9BFECF8CB10895FC0104C05D9BFECF97
:100240008CB9319680818823C9F70895FC015F9BA2
:10025000FECF8CB18083833211F03196F8CF1082BB
:060260000895F894FFCFA1
:00000001FF
