:100000000C942A000C9447000C9447000C94470071
:100010000C9447000C9447000C9447000C94470044
:100020000C9447000C9447000C9447000C94470034
:100030000C9447000C9447000C9447000C94470024
:100040000C9447000C9447000C9447000C94470014
:100050000C94470011241FBECFE5D8E0DEBFCDBF12
:1000600010E0A0E6B0E0EEE0F1E002C005900D92F5
:10007000A036B107D9F710E0A0E6B0E001C01D92AC
:10008000A036B107E1F70E9449000C9485000C945A
:1000900000001F931ABA8FEF8BBB0E945C0010E028
:1000A000C899FECF1F5F1A3008F010E0812F0E9420
:1000B0006800C89BFECFF4CF80EB87BB88E58DB985
:1000C0001EB8089580E487BB88E48DB91EB80895F2
:1000D0008FB9779BFECF0895779BFECF8FB10895A0
:1000E000FC0104C08FB9779BFECF319680818823B5
:1000F000C9F70895FC01779BFECF8FB180838332CF
:0E01000011F03196F8CF10820895F894FFCFD9
:00000001FF
