:060000000C942A000C9490
:1000060000000C9400000C9400000C9400000C946A
:1000160000000C9400000C9400000C9400000C945A
:1000260000000C9400000C9400000C9400000C944A
:1000360000000C9400000C9400000C9400000C943A
:1000460000000C9400000C9400000C940000F8943E
:10005600EE27ECBBF1E0FBBFEBBFE5BFF8E1F1BD7E
:10006600E1BD8DE0A2E0BB27ED938A95E9F780E03C
:1000760098E0A0E6ED930197E9F7EFE5EDBFE8E03C
:10008600EEBFC0E6D2E00C94B200E0E0EBBBEABB08
:10009600E8BBE7BBE5BBE4BBE2BBE1BBE3BFE2BF5A
:1000A600ECBFEFBDEEBDEDBDECBDE7BDE6BDEBBD06
:1000B600EABDE9BDE8BDE2BDE5BDE4BDE3BDE5BF22
:1000C600E4BFE9BFEAB9E0E8E8B9E0E0E0BFE6B9D5
:1000D600EDB9E6BF0895C09801C0C09AC1984BD04B
:1000E60051D049D0E2954ED021960895E4E1F0E052
:1000F60055D0E0E0E8BBEFEFE7BBC098C198E8B3A6
:10010600EF70E8BBE8B3E063E8BB4CD0C298E5E02B
:10011600F0E044D047D0C298E4E6F0E03FD042D0C9
:10012600C298E5E0F0E03AD0C098C198E8B3EF7025
:10013600E8BBC59A37D0C298E8E2EA93CCDFECE098
:10014600EA93C9DF0895E881E03019F4E981E058BF
:1001560002C0E981E054EA93BEDF2296089595DF56
:10016600C5DFE0E023D0EAE021D0E0E026D0EAE0F7
:1001760024D0FFCFFFCFE8B3EF70E8BBE8B3AE2FD4
:10018600E8810895E07FEA2BE8BBC29AE1E0F0E05F
:10019600FA93EA930E94E700C2980895FA93EA93C5
:1001A6000C94E700C29AE1E0F0E0F8CFEA93E0E0D1
:1001B600EA93C9DFEDE4EA9390CFEA93E1E0EA93AC
:1001C600C2DFEDE4EA9389CFE991F991309639F0EF
:1001D60080ED97E00197F1F7A8953197C9F7089553
:00000001FF
