:0A0000000C9434000C9400000C94E2
:10000A0000000C9400000C9400000C9400000C9466
:10001A0000000C9400000C9400000C9400000C9456
:10002A0000000C9400000C9400000C9400000C9446
:10003A0000000C9400000C9400000C9400000C9436
:10004A0000000C9400000C94000001020408000453
:10005A00080C0105090D02060A0E03070B0FF89496
:10006A00EE27ECBBF1E0FBBFEBBFE5BFF8E1F1BD6A
:10007A00E1BD8DE0A2E0BB27ED938A95E9F780E028
:10008A0098E0A0E6ED930197E9F7EFE5EDBFE8E028
:10009A00EEBFC0E6D2E00C94CD00E0E0EBBBEABBD9
:1000AA00EFE0E8BBE0EFE7BBE0E0E5BBEFEFE4BB86
:1000BA00E0E0E2BBE1BBE3BFE2BFECBFEFBDEEBDF8
:1000CA00EDBDECBDE7BDE6BDEBBDEABDE9BDE8BDF2
:1000DA00E2BDE5BDE4BDE3BDE5BFE4BFE9BFEAB902
:1000EA00E0E8E8B9E0E0E0BFE6B9EDB9E6BF0895B7
:1000FA001A9310E010E0143050F4E12FF0E0EC5ABB
:10010A00FF4FA491E981EA1711F01F5FF4CFE12FA5
:10011A001881229608950E94F30014E100E030E06D
:10012A00E8B3E06FE8BB00E00430C0F418B2E02F97
:10013A00A0E10E94E600E095E121E8BBE4E1F0E0FD
:10014A00FA93EA930E94DA00E6B3EF703E2F3F304B
:10015A0029F4E8B3E06FE8BB0F5FE6CF3F3011F454
:10016A00E12F12C0EFE03E273A93C2DF3E2FE32F82
:10017A00A8E5B0E0F0E00E94EE00AE0FBF1FE02F4E
:10018A00F0E0EA0FFB1FE4910E94F800249608951C
:10019A0084DF2197E0E0E883BEDFE883A881A43109
:1001AA0009F0E5BB2196F5CFFFCFE991F991309699
:1001BA0039F080ED97E00197F1F7A8953197C9F7E3
:1001CA000895EE230E2EEA2F19F0EE0F0A94E9F79E
:1001DA000895EE0FFF1FEE0FFF1F08953A932A931B
:1001EA001A930A9308953B812A81198108810895F7
:00000001FF
