:100000000C942A000C9447000C9447000C94470071
:100010000C9447000C9447000C9447000C94470044
:100020000C9447000C9447000C9447000C94470034
:100030000C9447000C9447000C9447000C94470024
:100040000C9447000C9447000C9447000C94470014
:100050000C94470011241FBECFE5D8E0DEBFCDBF12
:1000600010E0A0E6B0E0EEE1F2E002C005900D92F3
:10007000A036B107D9F710E0A0E6B0E001C01D92AC
:10008000A036B107E1F70E9449000C940D010C94D1
:100090000000DF93CF930F92CDB7DEB719828FEFB9
:1000A0008ABB1BBA0E940A0181E193E065E50E94C8
:1000B000D90080E197E228EC30E0F9013197F1F7BF
:1000C0000197D9F781E193E0BE016F5F7F4F0E94F6
:1000D000940089818BBBFECF82E080B982B984E431
:1000E00086BF11B8089584EA86BF06B607FEFDCF25
:1000F000089584E986BF089583B984E886BF06B66B
:1001000007FEFDCF089584EC86BF06B607FEFDCF3F
:1001100083B1089584E886BF06B607FEFDCF83B19C
:10012000089581B1887F0895EF92FF921F93CF9336
:10013000DF93EC017B010E9473000E9491008830E4
:1001400089F5CE01880F892F881F990B9195182F5B
:100150001E70812F806A0E947C000E94910088316D
:1001600009F58C2F0E947C000E9491008832D1F406
:100170000E9473000E9491008031A1F4812F816A56
:100180000E947C000E949100803461F40E948A00E9
:10019000F70180830E949100883521F40E94790044
:1001A00081E001C080E0DF91CF911F91FF90EF903F
:1001B00008951F93CF93DF93EC01162F0E947300D5
:1001C0000E949100883009F5CE0180709770880FE9
:1001D000892F881F990B9195806A0E947C000E944C
:1001E0009100883191F48C2F0E947C000E94910034
:1001F000883259F4812F0E947C000E94910088323D
:1002000021F40E94790081E001C080E0DF91CF916C
:0E0210001F9108950E946C000895F894FFCF8E
:00000001FF
