:100000000C942A000C9447000C9447000C94470071
:100010000C9447000C9447000C9447000C94470044
:100020000C9447000C9447000C9447000C94470034
:100030000C9447000C9447000C9447000C94470024
:100040000C9447000C9447000C9447000C94470014
:100050000C94470011241FBECFE5D8E0DEBFCDBF12
:1000600010E0A0E6B0E0EAE6F2E002C005900D92F2
:10007000AE36B107D9F710E0AEE6B0E001C01D9290
:10008000AF37B107E1F70E9461000C9433010C9483
:1000900000009C0110927E00EEE7F0E00DC0C90167
:1000A0006AE070E00E941F01805D8293C9016AE0EE
:1000B00070E00E941F019B012115310581F7CF01DE
:1000C00008950F931F93CF93DF930E949A0086E6C3
:1000D00090E00E94490060E041E00E94120180E24D
:1000E0009EE429E130E0F9013197F1F70197D9F762
:1000F00010E000E0C9E1D0E080E690E0612F40E050
:100100000E94120188E893E1FE013197F1F701970F
:10011000D9F70E94DA00002311F41F5F01C01150CB
:10012000133011F0112341F780E0002309F481E03E
:10013000082FE2CF8FEF8ABB1BBA87E087BB81E035
:1001400088BB88E38BBBC198C298C0984AEF50E047
:10015000CA010197F1F7C09A28EA31E6C90101976F
:10016000F1F78CE08BBBC198C298C098CA01019787
:10017000F1F7C09AC9010197F1F708958BBBC198B7
:10018000C29AC0988AEF90E00197F1F7C09A88EA86
:1001900091E60197F1F708958BBBC198C298C0987A
:1001A0008AEF90E00197F1F7C09A88EA91E601970B
:1001B000F1F7089581E08BBBC198C298C0988AEF8F
:1001C00090E00197F1F7C09A88EA91E60197F1F77C
:1001D0000895662311F4805801C080548BBBC198E8
:1001E000C298C0988AEF90E00197F1F7C09A88EA28
:1001F00091E60197F1F70895FC014AEF50E028EAF3
:1002000031E60CC08BBBC198C29AC098CA01019755
:10021000F1F7C09AC9010197F1F7319680818823DF
:1002200089F708950F931F938C01862F642F0E94E6
:10023000E900C8010E94FC001F910F910895AA1BBC
:10024000BB1B51E107C0AA1FBB1FA617B70710F0C1
:10025000A61BB70B881F991F5A95A9F780959095F3
:0A026000BC01CD010895F894FFCF12
:0E026A0057656C636F6D6520426F61726400B2
:00000001FF
