:100000000C942A000C9447000C9447000C94470071
:100010000C9447000C9447000C9447000C94470044
:100020000C9447000C9447000C9447000C94470034
:100030000C9447000C9447000C9447000C94470024
:100040000C9447000C9447000C9447000C94470014
:100050000C94470011241FBECFE5D8E0DEBFCDBF12
:1000600010E0A0E6B0E0E6E2F2E002C005900D92FA
:10007000A036B107D9F710E0A0E6B0E001C01D92AC
:10008000A036B107E1F70E94F2000C9411010C9424
:100090000000C098C19898B39F7098BB28B3982F60
:1000A000907F922B98BBC29A2AEF30E0F9013197EA
:1000B000F1F7C29898B39F7098BB98B38295807FF0
:1000C000982B98BBC29AC9010197F1F7C29888EAA8
:1000D00091E60197F1F70895C09AC19898B39F707F
:1000E00098BB28B3982F907F922B98BBC29A2AEF87
:1000F00030E0F9013197F1F7C29898B39F7098BB3F
:1001000098B38295807F982B98BBC29AC9010197BA
:10011000F1F7C29888EA91E60197F1F7089588E827
:1001200093E10197F1F718BA8FEF87BBC098C19898
:1001300088B38F7088BB88B3806388BBC29A2AEF6C
:1001400030E0C9010197F1F7C29882EE94E0FC011A
:100150003197F1F7C29AF9013197F1F7C298E8EABD
:10016000F1E63197F1F7C29AF9013197F1F7C298A8
:100170000197F1F7C098C19888B38F7088BBC59A72
:10018000C29AC9010197F1F7C29888E20E9449001A
:100190008CE00E9449000895662311F4805801C044
:1001A00080540E944900089581E00E94490008950A
:1001B000CF93DF93EC0103C00E946C0021968881ED
:1001C0008823D1F7DF91CF9108950F931F938C016E
:1001D000862F642F0E94CC00C8010E94D8001F9176
:1001E0000F9108950E948F0080E060E00E94CC0093
:1001F0008DE40E946C008AE060E00E94CC008DE4F7
:100200000E946C0080E061E00E94CC008DE40E94BE
:100210006C008AE061E00E94CC008DE40E946C00DA
:06022000FFCFF894FFCFB0
:00000001FF
