:0E0000000C942A000C9400000C9400000C9448
:10000E0000000C9400000C9400000C9400000C9462
:10001E0000000C9400000C9400000C9400000C9452
:10002E0000000C9400000C9400000C9400000C9442
:10003E0000000C9400000C9400000C9400000C9432
:10004E0000000C940000F894EE27ECBBF1E0FBBF2F
:10005E00EBBFE5BFF8E1F1BDE1BD8DE0A2E0BB274E
:10006E00ED938A95E9F780E098E0A0E6ED9301978D
:10007E00E9F7EFE5EDBFE8E0EEBFC0E6D2E00C94A5
:10008E008D00E7B3E06BE7BBE1E5EDB90895E881DC
:10009E00EFB9779BFECF219608951A9310E010E0EA
:1000AE00E9811E1750F4AA81BB81EE27A10FBE1F56
:1000BE00EC91EA93ECDF1F5FF3CF1881249608953D
:1000CE00E0E0EBBBEABBE8BBE7BBE5BBE4BBE2BBF6
:1000DE00E1BBE3BFE2BFECBFEFBDEEBDEDBDECBDDE
:1000EE00E7BDE6BDEBBDEABDE9BDE8BDE2BDE5BDE0
:1000FE00E4BDE3BDE5BFE4BFE9BFEAB9E0E8E8B9B6
:10010E00E0E0E0BFE6B9EDB9E6BF08952597E1E07E
:10011E00E883E2E0E983E3E0EA83E4E0EB83E5E011
:10012E00EC83CEDFAEDFE7E3EA93B1DFE8EBFBE093
:10013E00FA93EA930E94AB00FE01FA93EA93E5E08C
:10014E00EA93ABDFFFCFFFCFE991F991309639F00B
:10015E0080ED97E00197F1F7A8953197C9F70895CB
:00000001FF
