:100000000C942A000C9447000C9447000C94470071
:100010000C9447000C9447000C9447000C94470044
:100020000C9447000C9447000C9447000C94470034
:100030000C9447000C9447000C9447000C94470024
:100040000C9447000C9447000C9447000C94470014
:100050000C94470011241FBECFE5D8E0DEBFCDBF12
:1000600010E0A0E6B0E0EAEFF0E002C005900D92EB
:10007000A036B107D9F710E0A0E6B0E001C01D92AC
:10008000A036B107E1F70E9449000C947B000C9464
:1000900000008FEF84BB15BA0E9458000E946200D6
:1000A00085BBFCCF80EB87BB88E58DB91EB8089572
:1000B00080E487BB88E48DB91EB808958FB9779B1B
:1000C000FECF0895779BFECF8FB10895FC0104C049
:1000D0008FB9779BFECF319680818823C9F7089529
:1000E000FC01779BFECF8FB18083833211F0319674
:0A00F000F8CF10820895F894FFCFB6
:00000001FF
