:100000000C942A000C9447000C9447000C94470071
:100010000C9447000C9447000C9447000C94470044
:100020000C9447000C9447000C9447000C94470034
:100030000C9447000C9447000C9447000C94470024
:100040000C9447000C9447000C9447000C94470014
:100050000C94470011241FBECFE5D8E0DEBFCDBF12
:1000600010E0A0E6B0E0E4E6F3E002C005900D92F7
:10007000A036B107D9F710E0A0E6B0E001C01D92AC
:10008000A137B107E1F70E9461000C94B0010C9414
:1000900000009C0110927000E0E7F0E00DC0C90183
:1000A0006AE070E00E949C01805D8293C9016AE071
:1000B00070E00E949C019B012115310581F7CF0161
:1000C00008950E9417010E948C000E9491008F3FAA
:1000D000E1F38C3081F08D3028F48A30D9F08B3008
:1000E00081F407C08E3059F08E3038F08F3049F4EB
:1000F0000BC08BE20CC08DE30AC08AE208C08FE21D
:1001000006C0805D803419F40E945701DECF0E9442
:100110003B01DBCF8DE2FBCF80EF84BB8FEF85BB54
:10012000089544E050E0E1E0F0E06AEF70E0342F41
:1001300085B3806F85BB25B3CF01042E02C0880F25
:10014000991F0A94E2F78095822385BBCB01019722
:10015000F1F793B39F709F3029F083B38F708F3086
:10016000E1F709C03F5F4F5F5F4F48305105F9F637
:10017000383009F45AC0832F84508130E9F081303F
:1001800030F0823061F1833009F04FC03BC09B30CA
:1001900079F09C3020F4973009F047C00BC09D30B7
:1001A00029F09E3009F041C087E0089584E0089569
:1001B00081E008958FE008959B3069F09C3018F439
:1001C000973099F50AC09D3021F09E3071F588E096
:1001D000089585E0089582E0089580E008959B30B9
:1001E00069F09C3018F4973001F50AC09D3021F079
:1001F0009E30D9F489E0089586E0089583E008955B
:100200008CE008959B3069F09C3018F4973069F4C5
:100210000AC09D3021F09E3041F48EE008958DE0BB
:1002200008958AE008958BE008958FEF08958FEF89
:100230008ABB1BBA87E087BB81E088BB88E38BBBA6
:10024000C198C298C0984AEF50E0CA010197F1F7EF
:10025000C09A28EA31E6C9010197F1F78CE08BBB1F
:10026000C198C298C098CA010197F1F7C09AC90114
:100270000197F1F708958BBBC198C29AC0988AEF95
:1002800090E00197F1F7C09A88EA91E60197F1F7BB
:1002900008958BBBC198C298C0988AEF90E00197EF
:1002A000F1F7C09A88EA91E60197F1F7089581E0A5
:1002B0008BBBC198C298C0988AEF90E00197F1F784
:1002C000C09A88EA91E60197F1F70895662311F440
:1002D000805801C080548BBBC198C298C0988AEFE7
:1002E00090E00197F1F7C09A88EA91E60197F1F75B
:1002F0000895FC014AEF50E028EA31E60CC08BBBC0
:10030000C198C29AC098CA010197F1F7C09AC90171
:100310000197F1F731968081882389F708950F932B
:100320001F938C01862F642F0E946601C8010E94D2
:1003300079011F910F910895AA1BBB1B51E107C0C2
:10034000AA1FBB1FA617B70710F0A61BB70B881F65
:10035000991F5A95A9F780959095BC01CD010895F4
:04036000F894FFCF3F
:00000001FF
