:100000000C942A000C9447000C9447000C94470071
:100010000C9447000C9447000C9447000C94470044
:100020000C9447000C9447000C9447000C94470034
:100030000C9447000C9447000C9447000C94470024
:100040000C9447000C9447000C9447000C94470014
:100050000C94470011241FBECFE5D8E0DEBFCDBF12
:1000600010E0A0E6B0E0E0E1F1E002C005900D9202
:10007000A036B107D9F710E0A0E6B0E001C01D92AC
:10008000A036B107E1F70E9449000C9486000C9459
:1000900000000F931F93DF93CF93CDB7DEB7649724
:1000A0000FB6F894DEBF0FBECDBF0E9461008E0177
:1000B0000F5F1F4FC8010E947B00C8010E947100A2
:1000C000F9CF83E389B910BC86E880BD88E18AB99D
:1000D00008955D9BFECF8CB908955F9BFECF8CB1D8
:1000E0000895FC0104C05D9BFECF8CB931968081E0
:1000F0008823C9F70895FC015F9BFECF8CB18083F4
:10010000833211F03196F8CF10820895F894FFCF22
:00000001FF
